{
  "_format": "hh-sol-artifact-1",
  "contractName": "Bank",
  "sourceName": "contracts/Bank.sol",
  "abi": [
    {
      "inputs": [
        {
          "internalType": "contract Token",
          "name": "_token",
          "type": "address"
        }
      ],
      "stateMutability": "nonpayable",
      "type": "constructor"
    },
    {
      "anonymous": false,
      "inputs": [
        {
          "indexed": true,
          "internalType": "uint256",
          "name": "id",
          "type": "uint256"
        },
        {
          "indexed": false,
          "internalType": "uint256",
          "name": "value",
          "type": "uint256"
        },
        {
          "indexed": false,
          "internalType": "uint256",
          "name": "time",
          "type": "uint256"
        }
      ],
      "name": "Engagement",
      "type": "event"
    },
    {
      "anonymous": false,
      "inputs": [
        {
          "indexed": true,
          "internalType": "address",
          "name": "user",
          "type": "address"
        },
        {
          "indexed": false,
          "internalType": "uint256",
          "name": "amount",
          "type": "uint256"
        }
      ],
      "name": "PowerUp",
      "type": "event"
    },
    {
      "inputs": [
        {
          "internalType": "uint256",
          "name": "userID",
          "type": "uint256"
        },
        {
          "internalType": "uint256",
          "name": "_amount",
          "type": "uint256"
        }
      ],
      "name": "addPOINT",
      "outputs": [],
      "stateMutability": "nonpayable",
      "type": "function"
    },
    {
      "inputs": [
        {
          "internalType": "uint256",
          "name": "discordID",
          "type": "uint256"
        },
        {
          "internalType": "address",
          "name": "_address",
          "type": "address"
        }
      ],
      "name": "authenticate",
      "outputs": [],
      "stateMutability": "nonpayable",
      "type": "function"
    },
    {
      "inputs": [
        {
          "internalType": "uint256",
          "name": "",
          "type": "uint256"
        }
      ],
      "name": "balance",
      "outputs": [
        {
          "internalType": "uint256",
          "name": "",
          "type": "uint256"
        }
      ],
      "stateMutability": "view",
      "type": "function"
    },
    {
      "inputs": [
        {
          "internalType": "uint256",
          "name": "userID",
          "type": "uint256"
        }
      ],
      "name": "checkBalance",
      "outputs": [
        {
          "internalType": "uint256",
          "name": "",
          "type": "uint256"
        }
      ],
      "stateMutability": "view",
      "type": "function"
    },
    {
      "inputs": [
        {
          "internalType": "uint256",
          "name": "engagerID",
          "type": "uint256"
        },
        {
          "internalType": "uint256",
          "name": "posterID",
          "type": "uint256"
        }
      ],
      "name": "engage",
      "outputs": [],
      "stateMutability": "nonpayable",
      "type": "function"
    },
    {
      "inputs": [
        {
          "internalType": "address",
          "name": "",
          "type": "address"
        }
      ],
      "name": "etherBalanceOf",
      "outputs": [
        {
          "internalType": "uint256",
          "name": "",
          "type": "uint256"
        }
      ],
      "stateMutability": "view",
      "type": "function"
    },
    {
      "inputs": [],
      "name": "getContractBalance",
      "outputs": [
        {
          "internalType": "uint256",
          "name": "",
          "type": "uint256"
        }
      ],
      "stateMutability": "view",
      "type": "function"
    },
    {
      "inputs": [
        {
          "internalType": "uint256",
          "name": "",
          "type": "uint256"
        }
      ],
      "name": "inflectionAccount",
      "outputs": [
        {
          "internalType": "address",
          "name": "",
          "type": "address"
        }
      ],
      "stateMutability": "view",
      "type": "function"
    },
    {
      "inputs": [
        {
          "internalType": "uint256",
          "name": "discordID",
          "type": "uint256"
        }
      ],
      "name": "isAuthetnicated",
      "outputs": [
        {
          "internalType": "bool",
          "name": "",
          "type": "bool"
        }
      ],
      "stateMutability": "view",
      "type": "function"
    },
    {
      "inputs": [
        {
          "internalType": "address",
          "name": "",
          "type": "address"
        }
      ],
      "name": "isPoweredUp",
      "outputs": [
        {
          "internalType": "bool",
          "name": "",
          "type": "bool"
        }
      ],
      "stateMutability": "view",
      "type": "function"
    },
    {
      "inputs": [],
      "name": "payOff",
      "outputs": [],
      "stateMutability": "nonpayable",
      "type": "function"
    },
    {
      "inputs": [],
      "name": "powerDown",
      "outputs": [],
      "stateMutability": "nonpayable",
      "type": "function"
    },
    {
      "inputs": [
        {
          "internalType": "uint256",
          "name": "",
          "type": "uint256"
        }
      ],
      "name": "previousEngagement",
      "outputs": [
        {
          "internalType": "uint256",
          "name": "",
          "type": "uint256"
        }
      ],
      "stateMutability": "view",
      "type": "function"
    },
    {
      "inputs": [
        {
          "internalType": "uint256",
          "name": "",
          "type": "uint256"
        }
      ],
      "name": "previousMana",
      "outputs": [
        {
          "internalType": "uint256",
          "name": "",
          "type": "uint256"
        }
      ],
      "stateMutability": "view",
      "type": "function"
    },
    {
      "inputs": [
        {
          "internalType": "uint256",
          "name": "senderID",
          "type": "uint256"
        },
        {
          "internalType": "uint256",
          "name": "receiverID",
          "type": "uint256"
        },
        {
          "internalType": "uint256",
          "name": "amount",
          "type": "uint256"
        }
      ],
      "name": "sendPOINT",
      "outputs": [],
      "stateMutability": "nonpayable",
      "type": "function"
    }
  ],
  "bytecode": "0x60806040523480156200001157600080fd5b506040516200111b3803806200111b833981810160405281019062000037919062000095565b806000806101000a81548173ffffffffffffffffffffffffffffffffffffffff021916908373ffffffffffffffffffffffffffffffffffffffff1602179055505062000123565b6000815190506200008f8162000109565b92915050565b600060208284031215620000a857600080fd5b6000620000b8848285016200007e565b91505092915050565b6000620000ce82620000e9565b9050919050565b6000620000e282620000c1565b9050919050565b600073ffffffffffffffffffffffffffffffffffffffff82169050919050565b6200011481620000d5565b81146200012057600080fd5b50565b610fe880620001336000396000f3fe608060405234801561001057600080fd5b50600436106100f45760003560e01c8063586ffae811610097578063928dd2a711610066578063928dd2a7146102a9578063b2d98664146102b3578063dec3d071146102e3578063fd41c9c7146102ff576100f4565b8063586ffae8146102235780636f9fb98a1461023f5780637f2862861461025d5780638ea7f38c1461028d576100f4565b80631f683139116100d35780631f683139146101895780632c728147146101b95780633fac68d5146101e957806347bb89f0146101f3576100f4565b806226eb2d146100f9578063179fc99f1461012957806317e3f36114610159575b600080fd5b610113600480360381019061010e9190610ae7565b61031b565b6040516101209190610caa565b60405180910390f35b610143600480360381019061013e9190610ae7565b61033b565b6040516101509190610d25565b60405180910390f35b610173600480360381019061016e9190610b10565b610353565b6040516101809190610c66565b60405180910390f35b6101a3600480360381019061019e9190610b10565b610386565b6040516101b09190610caa565b60405180910390f35b6101d360048036038101906101ce9190610b10565b6103f2565b6040516101e09190610d25565b60405180910390f35b6101f161040a565b005b61020d60048036038101906102089190610b10565b61040c565b60405161021a9190610d25565b60405180910390f35b61023d60048036038101906102389190610b39565b610424565b005b61024761047a565b6040516102549190610d25565b60405180910390f35b61027760048036038101906102729190610b10565b610499565b6040516102849190610d25565b60405180910390f35b6102a760048036038101906102a29190610b75565b6104b6565b005b6102b161058a565b005b6102cd60048036038101906102c89190610b10565b61058c565b6040516102da9190610d25565b60405180910390f35b6102fd60048036038101906102f89190610bb1565b6105a4565b005b61031960048036038101906103149190610b75565b610698565b005b60026020528060005260406000206000915054906101000a900460ff1681565b60016020528060005260406000206000915090505481565b60036020528060005260406000206000915054906101000a900473ffffffffffffffffffffffffffffffffffffffff1681565b60008073ffffffffffffffffffffffffffffffffffffffff166003600084815260200190815260200160002060009054906101000a900473ffffffffffffffffffffffffffffffffffffffff1673ffffffffffffffffffffffffffffffffffffffff1614159050919050565b60066020528060005260406000206000915090505481565b565b60046020528060005260406000206000915090505481565b806003600084815260200190815260200160002060006101000a81548173ffffffffffffffffffffffffffffffffffffffff021916908373ffffffffffffffffffffffffffffffffffffffff1602179055505050565b60003373ffffffffffffffffffffffffffffffffffffffff1631905090565b600060046000838152602001908152602001600020549050919050565b6000670de0b6b3a7640000826104cc9190610e0c565b905060008054906101000a900473ffffffffffffffffffffffffffffffffffffffff1673ffffffffffffffffffffffffffffffffffffffff166340c10f1930836040518363ffffffff1660e01b8152600401610529929190610c81565b600060405180830381600087803b15801561054357600080fd5b505af1158015610557573d6000803e3d6000fd5b505050508060046000858152602001908152602001600020600082825461057e9190610d85565b92505081905550505050565b565b60056020528060005260406000206000915090505481565b806004600085815260200190815260200160002054101561063e5760046000848152602001908152602001600020546004600084815260200190815260200160002060008282546105f59190610d85565b9250508190555060046000848152602001908152602001600020546004600085815260200190815260200160002060008282546106329190610e66565b92505081905550610693565b806004600085815260200190815260200160002060008282546106619190610e66565b925050819055508060046000848152602001908152602001600020600082825461068b9190610d85565b925050819055505b505050565b6106d76040518060400160405280600f81526020017f5468652073656e6465722069733a2000000000000000000000000000000000008152503361095c565b60003373ffffffffffffffffffffffffffffffffffffffff163190506107326040518060400160405280601081526020017f42616c616e6365206265666f72653a2000000000000000000000000000000000815250826109f8565b600060246006600086815260200190815260200160002054426107559190610e66565b61075f9190610ddb565b905060008160056000878152602001908152602001600020546107829190610d85565b9050606481111561079257606490505b60006103e88260046000898152602001908152602001600020546107b69190610e0c565b6107c09190610ddb565b905060008054906101000a900473ffffffffffffffffffffffffffffffffffffffff1673ffffffffffffffffffffffffffffffffffffffff166340c10f1930836040518363ffffffff1660e01b815260040161081d929190610c81565b600060405180830381600087803b15801561083757600080fd5b505af115801561084b573d6000803e3d6000fd5b50505050606460468261085e9190610e0c565b6108689190610ddb565b60046000878152602001908152602001600020600082825461088a9190610d85565b9250508190555060646014826108a09190610e0c565b6108aa9190610ddb565b6004600088815260200190815260200160002060008282546108cc9190610d85565b92505081905550600a826108e09190610ddb565b826108eb9190610e66565b6005600088815260200190815260200160002081905550426006600088815260200190815260200160002081905550857fbe911e1f9f66d03213bf7151c18b8b493762baf82771ea14a5e15a57ee84f6cc824260405161094c929190610d40565b60405180910390a2505050505050565b6109f48282604051602401610972929190610cc5565b6040516020818303038152906040527f319af333000000000000000000000000000000000000000000000000000000007bffffffffffffffffffffffffffffffffffffffffffffffffffffffff19166020820180517bffffffffffffffffffffffffffffffffffffffffffffffffffffffff8381831617835250505050610a94565b5050565b610a908282604051602401610a0e929190610cf5565b6040516020818303038152906040527f9710a9d0000000000000000000000000000000000000000000000000000000007bffffffffffffffffffffffffffffffffffffffffffffffffffffffff19166020820180517bffffffffffffffffffffffffffffffffffffffffffffffffffffffff8381831617835250505050610a94565b5050565b60008151905060006a636f6e736f6c652e6c6f679050602083016000808483855afa5050505050565b600081359050610acc81610f84565b92915050565b600081359050610ae181610f9b565b92915050565b600060208284031215610af957600080fd5b6000610b0784828501610abd565b91505092915050565b600060208284031215610b2257600080fd5b6000610b3084828501610ad2565b91505092915050565b60008060408385031215610b4c57600080fd5b6000610b5a85828601610ad2565b9250506020610b6b85828601610abd565b9150509250929050565b60008060408385031215610b8857600080fd5b6000610b9685828601610ad2565b9250506020610ba785828601610ad2565b9150509250929050565b600080600060608486031215610bc657600080fd5b6000610bd486828701610ad2565b9350506020610be586828701610ad2565b9250506040610bf686828701610ad2565b9150509250925092565b610c0981610e9a565b82525050565b610c1881610eac565b82525050565b6000610c2982610d69565b610c338185610d74565b9350610c43818560208601610ee2565b610c4c81610f73565b840191505092915050565b610c6081610ed8565b82525050565b6000602082019050610c7b6000830184610c00565b92915050565b6000604082019050610c966000830185610c00565b610ca36020830184610c57565b9392505050565b6000602082019050610cbf6000830184610c0f565b92915050565b60006040820190508181036000830152610cdf8185610c1e565b9050610cee6020830184610c00565b9392505050565b60006040820190508181036000830152610d0f8185610c1e565b9050610d1e6020830184610c57565b9392505050565b6000602082019050610d3a6000830184610c57565b92915050565b6000604082019050610d556000830185610c57565b610d626020830184610c57565b9392505050565b600081519050919050565b600082825260208201905092915050565b6000610d9082610ed8565b9150610d9b83610ed8565b9250827fffffffffffffffffffffffffffffffffffffffffffffffffffffffffffffffff03821115610dd057610dcf610f15565b5b828201905092915050565b6000610de682610ed8565b9150610df183610ed8565b925082610e0157610e00610f44565b5b828204905092915050565b6000610e1782610ed8565b9150610e2283610ed8565b9250817fffffffffffffffffffffffffffffffffffffffffffffffffffffffffffffffff0483118215151615610e5b57610e5a610f15565b5b828202905092915050565b6000610e7182610ed8565b9150610e7c83610ed8565b925082821015610e8f57610e8e610f15565b5b828203905092915050565b6000610ea582610eb8565b9050919050565b60008115159050919050565b600073ffffffffffffffffffffffffffffffffffffffff82169050919050565b6000819050919050565b60005b83811015610f00578082015181840152602081019050610ee5565b83811115610f0f576000848401525b50505050565b7f4e487b7100000000000000000000000000000000000000000000000000000000600052601160045260246000fd5b7f4e487b7100000000000000000000000000000000000000000000000000000000600052601260045260246000fd5b6000601f19601f8301169050919050565b610f8d81610e9a565b8114610f9857600080fd5b50565b610fa481610ed8565b8114610faf57600080fd5b5056fea2646970667358221220d2588d883784d39b321640daef49c40e8bc67749ef3e4348b3a9a47719c7a2a564736f6c63430008040033",
  "linkReferences": {},
  "deployedLinkReferences": {}
}